:020000021000EC
:10F000000000012033F10100D9F00100C5AD04007A
:10F01000DDF00100DFF00100E1F001000000000080
:10F02000000000000000000000000000E3F001000C
:10F03000E5F0010000000000E7F00100E9F0010048
:10F040007DAD0200EDF00100EFF00100C9AB020060
:10F05000F3F00100F5F00100D19A0200D5AE0200F4
:10F06000FBF00100FDF00100FFF0010001F10100E3
:10F0700003F1010005F1010007F1010009F10100B0
:10F080000BF1010095C202001304030011F101000D
:10F09000D5C2020015F101006DE8020019F101006E
:10F0A0001BF101001DF101001FF1010021F1010020
:10F0B00023F1010025F10100000000000000000024
:10F0C00027F1010029F101002BF101002DF10100D0
:08F0D0002FF1010031F10100F4
:10F0D800FEE7FEE7FEE7FEE7FEE7FEE7FEE7FEE700
:10F0E800FEE7FEE7FEE7FEE7FEE7FEE7FEE7FEE7F0
:10F0F800FEE7FEE7FEE7FEE7FEE7FEE7FEE7FEE7E0
:10F10800FEE7FEE7FEE7FEE7FEE7FEE7FEE7FEE7CF
:10F11800FEE7FEE7FEE7FEE7FEE7FEE7FEE7FEE7BF
:10F12800FEE7FEE7FEE7FEE7FEE70348854600F058
:10F13800C5F800F003B87047000001203749384887
:10F148000A1A02D0072291438D46364936480A1AD0
:10F1580006D00722914381F30988022282F314889A
:10F1680032483349334A00F048F833483349344A7F
:10F1780000F043F833483449344A00F03EF8344844
:10F188003449354A00F039F834483549354A00F0F1
:10F1980034F835483549364A00F02FF835483649AD
:10F1A800364A00F02AF836483649374A00F025F83A
:10F1B80036483749002200F02BF8364836490022F5
:10F1C80000F026F835483649091A082903DB0022D9
:10F1D8000260043001601F481F49884205D0026858
:10F1E800043003B4904703BCF7E700208646EC469A
:10F1F800002000212B4A9047FEE7884207D0521A88
:10F2080005D0037801300B700131013AF9D170470C
:10F21800884202D002700130FAE7704700000120EE
:10F2280000FC0020000001200000012094FD0400E3
:10F23800182B0020002C0020B0F20100B0F20100D1
:10F248003CCC040094FD0400182B0020182B00204F
:10F258003CCC04003CCC04003CCC04003CCC040076
:10F268003CCC04003CCC04003CCC04003CCC040066
:10F2780094FD04007CFE0400002C0020002C0020DB
:10F288007CFE0400002C0020102C0020102C0020F4
:10F29800B0720020B0720020B0720020B07200205E
:08F2A800B076002061100200A5
:10F2B000024B034A1A6000BF704700BF182B0020A2
:10F2C0000090D00308B500F00DF90346002B06D0DE
:10F2D000744A754B1B681B0A03F01F03136000F090
:10F2E0002DF90346002B02D0704B714A1A6000F0D2
:10F2F00041F90346002B06D06E4A6F4B1B685B0B2F
:10F3000003F00703136000F061F90346002B05D0FA
:10F310006A4A6A4BDB6823F08073D36000F072F9AD
:10F320000346002B0ED04FF080430022C3F80C217F
:10F330004FF080430022C3F810214FF08043002299
:10F34000C3F8382500F08AF90346002B02D05C4B45
:10F3500003221A6000F09EF90346002B0BD0594B94
:10F3600005221A60584B01221A60584B00221A607D
:10F37000574B3F221A6000F0A9F90346002B76D0C4
:10F38000544A4FF08053D3F80434C2F82035514A20
:10F390004FF08053D3F80834C2F824354D4A4FF06B
:10F3A0008053D3F80C34C2F828354A4A4FF08053C2
:10F3B000D3F81034C2F82C35464A4FF08053D3F8B6
:10F3C0001434C2F83035434A4FF08053D3F8183420
:10F3D000C2F834353F4A4FF08053D3F81C34C2F89A
:10F3E00040353C4A4FF08053D3F82034C2F84435BE
:10F3F000384A4FF08053D3F82434C2F84835354AA0
:10F400004FF08053D3F82834C2F84C35314A4FF0CE
:10F410008053D3F82C34C2F850352E4A4FF0805325
:10F42000D3F83034C2F854352A4A4FF08053D3F819
:10F430003434C2F86035274A4FF08053D3F838345B
:10F44000C2F86435234A4FF08053D3F83C34C2F8F5
:10F450006835204A4FF08053D3F84034C2F86C35F9
:10F460001C4A4FF08053D3F84434C2F8703500F092
:10F4700049F90346002B05D0174A184B1B6803F0C7
:10F480004F031360164A164BD3F8883043F47003C9
:10F49000C2F88830BFF34F8FBFF36F8FFFF708FFBD
:10F4A00000BF08BD403501402403001074C0074070
:10F4B0000DF0ADBA3C05004044020010F0ED00E054
:10F4C000A0050040105600408856004018560040E5
:10F4D0001456004000C00040E40E004058020010E6
:10F4E00000ED00E0124B1B68DBB2062B1DD1114B67
:10F4F0001B6803F00F03002B17D10F4B1B6803F0A1
:10F50000F003302B01D1012310E00B4B1B6803F0FB
:10F51000F003402B01D1012308E0074B1B6803F0E7
:10F52000F003502B01D1012300E00023184670475F
:10F53000E00F00F0E40F00F0E80F00F00A4B1B684A
:10F54000DBB2062B0DD1094B1B6803F00F03002B18
:10F5500007D1074B1B6803F0F003302B01D10123C7
:10F5600000E0002318467047E00F00F0E40F00F0C1
:10F57000E80F00F0124B1B68DBB2062B1DD1114BBC
:10F580001B6803F00F03002B17D10F4B1B6803F010
:10F59000F003302B01D1012310E00B4B1B6803F06B
:10F5A000F003402B01D1012308E0074B1B6803F057
:10F5B000F003502B01D1012300E0002318467047CF
:10F5C000E00F00F0E40F00F0E80F00F00A4B1B68BA
:10F5D000DBB2062B0DD1094B1B6803F00F03002B88
:10F5E00007D1074B1B6803F0F003302B01D1012337
:10F5F00000E0002318467047E00F00F0E40F00F031
:10F60000E80F00F0124B1B68DBB2062B1DD1114B2B
:10F610001B6803F00F03002B17D10F4B1B6803F07F
:10F62000F003302B01D1012310E00B4B1B6803F0DA
:10F63000F003402B01D1012308E0074B1B6803F0C6
:10F64000F003502B01D1012300E00023184670473E
:10F65000E00F00F0E40F00F0E80F00F00A4B1B6829
:10F66000DBB2062B0DD1094B1B6803F00F03002BF7
:10F6700007D1074B1B6803F0F003302B01D10123A6
:10F6800000E0002318467047E00F00F0E40F00F0A0
:10F69000E80F00F00A4B1B68DBB2062B0DD1094BBB
:10F6A0001B6803F00F03002B07D1074B1B6803F007
:10F6B000F003302B01D1012300E0002318467047EE
:10F6C000E00F00F0E40F00F0E80F00F00A4B1B68B9
:10F6D000DBB2062B0DD1094B1B6803F00F03002B87
:10F6E00007D1074B1B6803F0F003502B01D1012316
:10F6F00000E0002318467047E00F00F0E40F00F030
:10F70000E80F00F0124B1B68DBB2062B1DD1114B2A
:10F710001B6803F00F03002B17D10F4B1B6803F07E
:10F72000F003302B01D1012310E00B4B1B6803F0D9
:10F73000F003402B01D1012308E0074B1B6803F0C5
:10F74000F003502B01D1012300E00023184670473D
:10F75000E00F00F0E40F00F0E80F00F07047704792
:10F7600082B003468DF8073008499DF907305B09E0
:10F770009DF8072002F01F02012000FA02F2603318
:10F7800041F8232000BF02B0704700BF00E100E055
:10F79000BFF34F8F0549054BDB6803F4E062044B70
:10F7A0001343CB60BFF34F8F00BFFDE700ED00E0D8
:10F7B0000400FA053EDF704700BF184682B0019092
:10F7C0004FF0A043184602B0704700B585B00190D5
:10F7D000084611461A4603468DF803300B468DF84D
:10F7E000023013468DF8013001AB1846FFF7E6FFF3
:10F7F0000390019A9DF803109DF802305B001943B5
:10F800009DF801309B0019439DF818301B021943E5
:10F810009DF81C301B041943039B02F5E07243F86A
:10F82000221000BF05B05DF804FB00B585B0039061
:10F830000B468DF80B309DF80B200023019300231D
:10F8400000931346002200210398FFF7BEFF00BF7C
:10F8500005B05DF804FB00B585B0019001AB18461A
:10F86000FFF7ACFF0390039800F00AF80246019BF3
:10F8700022FA03F303F00103184605B05DF804FB18
:10F8800082B00190019BD3F81035184602B0704742
:10F8900084B00190244B0393019B002B40D0234B59
:10F8A0001A680399019B00BF00BF00BF00BF00BFE3
:10F8B00000BF00BF00BF8A422FD000BF00BF00BF03
:10F8C00000BF00BF00BF00BF00BF00BF00BF00BF40
:10F8D00000BF00BF00BF00BF00BF00BF00BF00BF30
:10F8E00000BF00BF00BF00BF00BF00BF00BF00BF20
:10F8F00000BF00BF00BF00BF00BF00BF00BF00BF10
:10F9000000BF00BF00BF00BF00BF00BF00BF00BFFF
:10F9100000BF00BF00BF00BF00BF013BC3D10193C8
:10F9200000BF04B0704700BF0024F400182B002073
:10F9300000B583B00190019B4FF47A7202FB03F390
:10F940001846FFF7A5FF00BF03B05DF804FB82B0C7
:10F950004FF010235B690193019BB3F1FF3F04D18A
:10F960004FF080535B691B0300E0019B184602B017
:10F9700070470000024BD3F804351846704700BFAB
:10F9800000B0004000B585B00190019B0D4A9B1A64
:10F990000D4AA2FB03231B090393039B092B0BD9DD
:10F9A0007B460293094B1B68002B04D0074B1B6856
:10F9B0000298984700E000DE039B184605B05DF80A
:10F9C00004FB00BF682C0020CDCCCCCC684E0020BE
:10F9D00000B58BB00790B0EE407AF0EE607A0B463F
:10F9E0008DED057ACDED067AADF81230BDF8123006
:10F9F0001A466E4903200FF01CF8DDED057AF5EE8E
:10FA0000C07AF1EE10FA0AD5DDED057ABFEE007A84
:10FA1000F4EEC77AF1EE10FA01DD654A00E0654ABE
:10FA2000DDED057AFDEEE77A17EE901ADDED057A49
:10FA3000F5EEC07AF1EE10FA12DD9DED057ADDEDFE
:10FA4000057AFDEEE77AF8EEE77A77EE677A9FEDD2
:10FA50005A7A67EE877AFDEEE77A17EE903A11E070
:10FA6000DDED057AFDEEE77AB8EEE77ADDED057AB1
:10FA700077EE677A9FED507A67EE877AFDEEE77A48
:10FA800017EE903A00930B464C4903200EF0FCFF12
:10FA9000DDED067AF5EEC07AF1EE10FA0AD5DDED6D
:10FAA000067ABFEE007AF4EEC77AF1EE10FA01DDC5
:10FAB0003F4A00E03F4ADDED067AFDEEE77A17EEB9
:10FAC000901ADDED067AF5EEC07AF1EE10FA12DD4D
:10FAD0009DED067ADDED067AFDEEE77AF8EEE77A3F
:10FAE00077EE677A9FED347A67EE877AFDEEE77AF4
:10FAF00017EE903A11E0DDED067AFDEEE77AB8EE0A
:10FB0000E77ADDED067A77EE677A9FED2B7A67EE7E
:10FB1000877AFDEEE77A17EE903A00930B46284974
:10FB200003200EF0B1FF0798FFF72CFF0990DDEDE1
:10FB3000067AFDEEE77ACDED037A9DF80C305BB2E4
:10FB4000DBB28DF820309DED067ADDED067AFCEE15
:10FB5000E77ACDED037A9DF80C30DBB207EE903AF0
:10FB6000F8EEE77A77EE677A9FED137A67EE877A99
:10FB7000FCEEE77ACDED037A9DF80C30DBB28DF820
:10FB80002130DDED057AFCEEE77ACDED037A9DF8C4
:10FB90000C30DBB28DF8223008AA03230999062025
:10FBA00004F0AEF800BF0BB05DF804FB68CC0400B5
:10FBB000A0CC0400A4CC04000000C842A8CC0400DF
:10FBC000C8CC040000B593B00023ADF84630012343
:10FBD000099309AB1946524824F05CFF0F900F9B24
:10FBE000002B04D04F4AAC210F980BF011FC0123DD
:10FBF00009934B4B1B8809AA4B49184625F090F8EE
:10FC00000E900E9B002B04D0464AAE210E980BF0AE
:10FC1000FFFB0C23099309AA02AB1146184624F0F6
:10FC200001FD0D900D9B002B04D03E4AB3210D9891
:10FC30000BF0EEFB00238DF845300023109365E0B8
:10FC4000109B5B0012AA134433F8403C6A461146ED
:10FC5000184624F087FC0C900C9B002B04D0314AF2
:10FC6000B8210C980BF0D4FB9DF80030012B2ED15D
:10FC7000BDF80200BDF846305B002C4A134419461B
:10FC800024F0C2FF0346002B21D1BDF84630274A9D
:10FC900032F813304FF6FF72934218D0BDF8463059
:10FCA0005B00234A1A446B461146184624F016FDA1
:10FCB0000B900B9B002B04D01A4AC2210B980BF01F
:10FCC000A7FBBDF846300133ADF846301BE09DF888
:10FCD0000030032B17D19DF845305B00154A1A44BC
:10FCE0006B461146184624F0F9FC0A900A9B002B3B
:10FCF00004D00C4AC7210A980BF08AFB9DF84530C6
:10FD000001338DF84530109B01331093099B109AF5
:10FD10009A4295D3BDF84630184613B05DF804FBFF
:10FD2000382C0020ECCC04003A2C00203C2C002085
:10FD3000502C0020642C002010B584B0524B1B685E
:10FD400003F48043002B2ED0504B1B68032B2ADD7D
:10FD50002F214F482CF01AFB0346002B06D02F21F1
:10FD60004B482CF013FB03465C1C0EE05C2148481A
:10FD70002CF00CFB0346002B06D05C2144482CF0F1
:10FD800005FB03465C1C00E0414CFFF7F3FD024617
:10FD9000404B1B880193404B00931346D9222146C8
:10FDA000042014F08BF83B4B1B8819463B4A0B464A
:10FDB0009B000B449B0013441A88364B1B88194642
:10FDC000374B33F811301946104621F069F903908A
:10FDD000039B002B04D02E4ADD2103980BF018FB67
:10FDE00020F05AFF002302932A4B1B88194602AACF
:10FDF0000423012003F084FF264B1B8801339AB2B1
:10FE0000244B1A80234B1B88092B08D8254B1B88B1
:10FE100003F580739BB2184603F0D8FC31E01A4B0F
:10FE20001B6803F48043002B2BD0184B1B68032B5B
:10FE300027DD2F2116482CF0A9FA0346002B06D007
:10FE40002F2113482CF0A2FA03465C1C0EE05C2123
:10FE50000F482CF09BFA0346002B06D05C210C487F
:10FE60002CF094FA03465C1C00E0094CFFF782FD7D
:10FE700002460D4B00931346EA222146042014F05B
:10FE80001DF800BF04B010BD2C2B0020302B00202B
:10FE9000ECCC04006A2D00205CCD0400682C00200E
:10FEA000502C0020682D002084CD040000B585B0C2
:10FEB0000023ADF80E300023029322E04FF6FF73CB
:10FEC000ADF806301349029A13469B0013449B0079
:10FED0000B441B880DF106021146184621F034F937
:10FEE0000346002B10D1BDF806304FF6FF72934247
:10FEF0000AD0BDF80E300133ADF80E30029B01334D
:10FF00000293029B092BD9D9BDF80E30184605B0D3
:10FF10005DF804FB682C0020F0B58FB00B9009A8A9
:10FF200080E80600ADF822300B98FFF72BFD0D900E
:10FF300009AB0C932C4B1B6803F48043002B49D076
:10FF40002A4B1B68032B45DD2F2129482CF01EFA74
:10FF50000346002B06D02F2125482CF017FA034624
:10FF60005C1C0EE05C2122482CF010FA0346002BAA
:10FF700006D05C211E482CF009FA03465C1C00E008
:10FF80001B4CFFF7F7FC07460C9B1B781A460C9B93
:10FF900001331B7819460C9B02331B7818460C9BC7
:10FFA00003331B781D460C9B04331B781E46BDF89B
:10FFB00022300793069605950490039102920D9BBB
:10FFC00001930C4B00933B4640F20912214604205A
:10FFD00013F074FF09AA05230D99072003F090FE82
:10FFE00000BF0FB0F0BD00BF2C2B0020302B002035
:10FFF000ECCC0400A0CD040010B598B09C4B1B685D
:020000022000DC
:1000000003F48043002B2CD09A4B1B68032B28DD74
:100010002F2199482CF0BAF90346002B06D02F2146
:1000200095482CF0B3F903465C1C0EE05C21924825
:100030002CF0ACF90346002B06D05C218E482CF046
:10004000A5F903465C1C00E08B4CFFF793FC0246CD
:100050008A4B0093134640F20F122146042013F0FE
:100060002DFF24F0CFF820F0C3FE854B4FF6FF7232
:100070001A80844B4FF6FF721A80002317930EE00C
:10008000814A179B4FF6FF7122F813107F4A179B86
:100090004FF6FF7122F81310179B01331793179B2C
:1000A000092BEDD97A4B4FF6FF721A80784B4FF639
:1000B000FF725A80774825F089FD1490149B002B1D
:1000C00005D06D4A40F21F1114980BF0A1F9724A45
:1000D0000021724826F046F81390139B002B05D0A0
:1000E000654A4FF4907113980BF092F90023169320
:1000F0002DE06B49169A13469B0013449B000B445A
:100100000433684A1A606649169A13469B001344E2
:100110009B000B440833644A1A60169A13469B00EE
:1001200013449B005E4A1344169A92B21146184635
:100130002BF004FA1290129B002B05D04E4A4FF47C
:10014000937112980BF064F9169B01331693169B6A
:100150000B2BCED923F0D4FF0346002B06D0FFF79C
:1001600031FD03461A46514B1A804EE0504B1B6836
:10017000029302AB184624F05BF81190119B002B00
:1001800005D03D4A40F2311111980BF041F9404938
:100190004CF6FE2024F0C8F81090109B002B05D0E0
:1001A000354A4FF4997110980BF032F941494CF6E9
:1001B000FF2024F0B9F80F900F9B002B05D02E4A9A
:1001C00040F233110F980BF023F92D4A3A490020E1
:1001D00024F0E9FA0E900E9B002B05D0264A4FF42E
:1001E0009A710E980BF014F9254B1988254B334A58
:1001F000002024F03BFD0D900D9B002B05D01E4AE6
:1002000040F235110D980BF003F920F0EFFC034696
:10021000002B06D0FFF74AFE03461A46284B1A80E9
:10022000FAE01E4B1A88174B1B881946104621F01E
:1002300007F80C900C9B002B05D00F4A40F23F11A1
:100240000C980BF0E5F8154B1A880E4B1B881946D5
:10025000104621F04FF80B900B9B002B05D0064A5F
:100260004FF4A0710B980BF0D3F8002315935CE0CA
:100270002C2B0020302B0020ECCC0400F8CD040007
:10028000382C00203A2C00203C2C0020502C002040
:10029000642C0020F137020071040200582D002068
:1002A000682C002019FF0100D1F90100682D002001
:1002B0001CCE0400662C002044CC040054CC040066
:1002C0006A2D00206449159A13469B0013449B0035
:1002D0000B441A88614B1B881946104620F0B0FF6A
:1002E0000A900A9B002B05D05D4A40F245110A98FE
:1002F0000BF08EF85849159A13469B0013449B0047
:100300000B441A88554B1B881946104620F0F2FF03
:100310000990099B002B05D0514A4FF4A37109980D
:100320000BF076F8159B01331593159B092BC9D952
:10033000494BB3F8C820494B1B881946104620F09A
:100340007FFF0890089B002B05D0454A40F24911D9
:1003500008980BF05DF8404BB3F8C8203F4B1B8862
:100360001946104620F0C6FF0790079B002B05D0CA
:100370003B4A4FF4A57107980BF04AF8364BB3F897
:10038000C820384B1B881946104620F089FE06907D
:10039000069B002B05D0324A40F24B1106980BF019
:1003A00037F82D4BB3F8DC202C4B1B881946104630
:1003B00020F046FF0590059B002B05D0284A40F20F
:1003C0004D1105980BF024F8234BB3F8DC20234B98
:1003D0001B881946104620F08DFF0490049B002BCB
:1003E00005D01F4A4FF4A77104980BF011F81A4B6F
:1003F000B3F8DC201B4B5B881946104620F050FEFA
:100400000390039B002B05D0154A40F24F1103982F
:100410000AF0FEFF20F040FC03F0D0FB124B1A88DC
:10042000124B1B889A4208D20F4B1B8803F580732E
:100430009BB2184603F0ACF90BE00C4B1B88092B60
:1004400007D80A4B1B8803F580739BB2184603F04C
:10045000BDF900BF18B010BD682C00203A2C002058
:10046000ECCC0400642C00206A2D0020682D0020B4
:1004700010B586B005900491049B1B78002B00D02A
:1004800040E0224B1B6803F48043002B39D0204B03
:100490001B68032B35DD2F211E482BF077FF034609
:1004A000002B06D02F211B482BF070FF03465C1C4D
:1004B0000EE05C2117482BF069FF0346002B06D0A5
:1004C0005C2114482BF062FF03465C1C00E0114CD9
:1004D000FFF750FA049B5B685B881A46049B1B7B02
:1004E0001946049B5B6893F91430039302910192BF
:1004F000094B009303464FF4B3722146042013F0D6
:10050000DDFC00BF00BF06B010BD00BF2C2B0020DB
:10051000302B0020ECCC040020CE040010B586B0B7
:100520000D230393374B1B6803F48043002B2FD01C
:10053000354B1B68032B2BDD2F2134482BF026FF76
:100540000346002B06D02F2130482BF01FFF034617
:100550005C1C0EE05C212D482BF018FF0346002B9D
:1005600006D05C2129482BF011FF03465C1C00E0FB
:10057000264CFFF7FFF90246254B1B880193254BBC
:100580000093134640F275122146042013F096FCA6
:100590001F4B1B88194603AA0423012003F0B0FB5C
:1005A0001B4B1B881A461C4B33F81230184623F09D
:1005B0000FFF0590059B002B05D0144A4FF4BC712A
:1005C00005980AF025FF124B1B881A46134B33F887
:1005D0001230184624F0DAFA0490049B002B05D060
:1005E0000A4A40F2791104980AF012FF0C4B1B885A
:1005F00003F580739BB2184603F0E8F800BF06B01D
:1006000010BD00BF2C2B0020302B0020ECCC0400B0
:100610006A2D002058CE0400502C00203C2C0020D5
:10062000682D002010B58AB00390584B1B88092B09
:100630000BD97B460993564B1B68002B04D0544BB7
:100640001B680998984700E000DE524B1B6803F4D2
:100650008043002B2FD0504B1B68032B2BDD2F2109
:100660004E482BF093FE0346002B06D02F214B481B
:100670002BF08CFE03465C1C0EE05C2147482BF0FF
:1006800085FE0346002B06D05C2144482BF07EFEFD
:1006900003465C1C00E0414CFFF76CF90246039BEB
:1006A0005B8A01933E4B0093134640F2831221462E
:1006B000042013F003FC039B588A3A4B1B885B0011
:1006C000394A1344194623F02FFE0890089B002B4B
:1006D00005D0324A4FF4C37108980AF099FE039B83
:1006E000588A324B1988039B9C682E4B1B885B00F1
:1006F0002F4A1344224624F0EBF90790079B002B66
:1007000005D0264A40F2871107980AF081FE254B52
:100710001B881A46264B33F81230184625F01EFB6C
:100720000690069B002B05D01C4A4FF4C571069815
:100730000AF06EFE1B4B1B881A461D4B33F8122025
:10074000184B1B881946184B33F8113019461046C0
:1007500025F084FA0590059B002B05D00F4A4FF435
:10076000C67105980AF054FE0E4B1B8801339AB2ED
:100770000C4B1A80054B1B8803F580739BB21846FF
:1007800003F006F800BF0AB010BD00BF6A2D0020BC
:10079000684E00202C2B0020302B0020ECCC0400D5
:1007A0007CCE0400682D0020502C0020382C002026
:1007B0003C2C002000B583B00190002001F05AFECF
:1007C00000BF03B05DF804FB10B59EB00590049126
:1007D0001346ADF80E30049B1B781B021AB2049B23
:1007E00001331B781BB213431BB2ADF87630BDF852
:1007F00076304FF6FF72934202D10A23ADF876307D
:10080000049B02331B78013B062B00F27A8201A283
:1008100052F823F031080200A50802006B0902001B
:10082000E50A0200DF0B0200D30C0200F30C020009
:10083000A34B1B6803F48043002B2CD0A14B1B68F7
:10084000032B28DD2F21A0482BF0A0FD0346002B11
:1008500006D02F219C482BF099FD03465C1C0EE02E
:100860005C2199482BF092FD0346002B06D05C21B9
:1008700095482BF08BFD03465C1C00E0924CFFF783
:1008800079F80246914B009313464FF4D4722146F7
:10089000042013F013FB049B03331B78184601F06C
:1008A00097FD33E2BDF80E30032B0BD1BDF8763047
:1008B000BDF8762086498A5C82F00102D1B2844A72
:1008C000D15405E0BDF87630049AD178804AD154ED
:1008D000BDF8762013469B0013449B007D4A981870
:1008E000BDF876307A4AD15C2AF08DFE03461C931F
:1008F000734B1B6803F48043002B2ED0714B1B6895
:10090000032B2ADD2F2170482BF040FD0346002BDE
:1009100006D02F216C482BF039FD03465C1C0EE0FD
:100920005C2169482BF032FD0346002B06D05C2188
:1009300065482BF02BFD03465C1C00E0624CFFF782
:1009400019F802461C9B0193634B009313464FF426
:10095000D9722146042013F0B1FABDF876101CAA12
:100960000423052003F0CCF9D0E1049BD91CBDF889
:100970000E30033B1A461AAB18462BF021FDBDF88A
:1009800076300A2B03D0BDF876300B2B4BD1BDF857
:10099000762013469B0013449B004E4A981803236D
:1009A0001AAA06CA2AF060FE03461C93444B1B6831
:1009B00003F48043002B2ED0424B1B68032B2ADD0F
:1009C0002F2141482BF0E2FC0346002B06D02F21BB
:1009D0003D482BF0DBFC03465C1C0EE05C213A48F2
:1009E0002BF0D4FC0346002B06D05C2136482BF0BC
:1009F000CDFC03465C1C00E0334CFEF7BBFF024617
:100A00001C9B0193354B009313464FF4DD72214636
:100A1000042013F053FABDF876101CAA0423042016
:100A200003F06EF972E1BDF8762013469B00134483
:100A30009B00284A98181AAB93E806002AF0ACFDF0
:100A400003461C931E4B1B6803F48043002B2ED0DF
:100A50001C4B1B68032B2ADD2F211B482BF096FC17
:100A60000346002B06D02F2117482BF08FFC03469E
:100A70005C1C0EE05C2114482BF088FC0346002B24
:100A800006D05C2110482BF081FC03465C1C00E082
:100A90000D4CFEF76FFF02461C9B0193104B009319
:100AA00013464FF4E0722146042013F007FABDF814
:100AB00076101CAA0423042003F022F926E100BFCB
:100AC0002C2B0020302B0020ECCC0400ACCE0400FA
:100AD0006C2D0020682C0020C8CE0400E8CE040055
:100AE00010CF04004FF6FF73ADF85E30BDF87620EE
:100AF000884913469B0013449B000B441B880DF14F
:100B00005E021146184620F01FFBBDF85E304FF61E
:100B1000FF72934200F0F780BDF85E3015AA1146CF
:100B2000184623F01FFDBDF876307B4A32F81300DB
:100B3000BDF87630794A32F81330194625F08EF830
:100B400003238DF84C304CF6FF23ADF84E3059237B
:100B5000ADF84A300223ADF84830BDF85600129B7C
:100B600013AA06CA25F0F0F903461C936C4B1B68C8
:100B700003F48043002B00F0C6806A4B1B68032BF4
:100B800040F3C1802F2168482BF000FC0346002B66
:100B900006D02F2164482BF0F9FB03465C1C0EE0C5
:100BA0005C2161482BF0F2FB0346002B06D05C2150
:100BB0005D482BF0EBFB03465C1C00E05A4CFEF753
:100BC000D9FE02461C9B0193584B0093134640F2FA
:100BD000D7122146042013F071F900BF93E04FF6BD
:100BE000FF73ADF83E30BDF876204A4913469B00AE
:100BF00013449B000B441B880DF13E02114618461E
:100C000020F0A2FABDF83E304FF6FF7293427CD03E
:100C1000BDF83E300DAA1146184623F0A3FCBDF8DE
:100C200076303D4A32F81300BDF876303B4A32F850
:100C30001330194625F012F803238DF82C304CF6AA
:100C4000FF23ADF82E305923ADF82A300223ADF83A
:100C50002830BDF836000A9B0BAA06CA25F0A7F972
:100C600003461C932E4B1B6803F48043002B4CD08F
:100C70002C4B1B68032B48DD2F212B482BF086FBC8
:100C80000346002B06D02F2127482BF07FFB03467D
:100C90005C1C0EE05C2124482BF078FB0346002B03
:100CA00006D05C2120482BF071FB03465C1C00E061
:100CB0001D4CFEF75FFE02461C9B01931C4B0093EC
:100CC000134640F2ED122146042013F0F7F800BF5E
:100CD0001BE0184A002118480BF036FB174B002286
:100CE0004FF4203118460BF05FFB012001F0C2FBEE
:100CF0000CE0049B03331B78184601F003FD00BF92
:100D000004E000BF02E000BF00E000BF00BF1EB073
:100D100010BD00BF682C00203C2C0020502C00206F
:100D20002C2B0020302B0020ECCC04002CCF040016
:100D300058CF0400B507020064CC0400782D0020D1
:100D400070B58AB0079006910592059B0993099B9F
:100D50005B6818460DF056FE0546099B1B881E462B
:100D6000099B9C68099B9B6818460EF013FA034682
:100D700018460DF047FE0346039302940196009532
:100D8000069B079A074901200DF097FE0520FEF704
:100D9000CFFD059A069907980AF052FB00BF0AB0EA
:100DA00070BD00BF84CF040000B587B0F1EE103AEB
:100DB0000193019B23F09F030293029BE1EE103A03
:100DC000F1EE103A03932620FEF7CAFCFEF7F2FC80
:100DD0000590059B0493049B002B05D0044A40F228
:100DE000322104980AF014FB00BF07B05DF804FB41
:100DF000ECCC040000B583B00190019B1B78012B63
:100E000009D0022B11D0002B00D015E00C49032093
:100E10000DF0FEFD10E00B4903200DF0F9FD05205B
:100E2000FEF786FDFEF7B4FC06E0074903200DF04F
:100E3000EFFDFEF7ADFC00BF00BF03B05DF804FBA3
:100E4000DCCF040004D0040030D0040000B58DB025
:100E50000F2000F0C9F90B900B9B0A930A9B002B03
:100E600005D0234A40F25B210A980AF0D1FA214BBF
:100E7000079307AB18462AF011FE0B900B9B0993C2
:100E8000099B002B05D01A4A4FF4187109980AF0F3
:100E9000BFFA184B0693174B05931749174802F0F2
:100EA00069FF174B0293154B03930523049302AB81
:100EB000184601F0DBF90B900B9B0893089B002B65
:100EC00005D00B4A40F2722108980AF0A1FA0D4AA7
:100ED0006B4692E803001860043319706B460021DA
:100EE00018462AF095FC00BF0DB05DF804FB00BF6A
:100EF000ECCC04003CCC0400C9070200102C0020FC
:100F0000F50D020054D0040000B587B003460A4630
:100F10008DF8073013468DF806309DF80630012B0A
:100F200006D11B4B1B7883F00103DAB2184B1A7001
:100F300004AB00221A601A7101238DF81030FF23D0
:100F40008DF81130FF238DF81230FF238DF8133008
:100F500002AB00221A601A7101238DF808309DF847
:100F600007300B2B10D10A4B1B78012B06D1032322
:100F700004AA06CA07482AF077FB05E0032302AA61
:100F800006CA04482AF070FB00BF07B05DF804FBF6
:100F9000982D0020302D002000B585B008F0AEFC63
:100FA000034683F00103DBB2002B13D008F05EFC94
:100FB0000390039B002B0DD016480DF023FD024635
:100FC000039B00934FF42873134902200DF05CFD3E
:100FD000039B1AE040F26662012110480AF084F98E
:100FE0000390039B002B0DD00A480DF00BFD024629
:100FF000039B00934FF42B73074902200DF044FD2F
:10100000039B02E00AF0E2F90346184605B05DF8DA
:1010100004FB00BFECCC04005CD0040010D1040041
:1010200000B585B00C4B019301AB184600F0D0FB26
:101030000390039B0293029B002B05D0074A40F2CA
:10104000D12102980AF0E4F96420FEF771FC00BF98
:1010500005B05DF804FB00BF18D10400ECCC04001F
:1010600000B589B000200DF07DFC069039490320C1
:101070000DF0CEFC03210B20FEF7D7FB069B05935A
:10108000059B002B05D0344A40F2E12105980AF077
:10109000BFF90B20FEF7DFFB0346002B25D104230D
:1010A0008DF81330FEF753FC0346A3F5E04303939A
:1010B000FEF74DFC03461A469DF813301B03D31A66
:1010C000A3F5E043079306E007980AF02BF8079B87
:1010D00003F580530793039A079B9A42F4D21F4962
:1010E00003200DF095FCFEF753FB1D4A04214FF43D
:1010F000C04012F0CDFE1B4A3C2108200AF044FA01
:101100000290029B0193019B002B05D0124A40F2F2
:10111000F32101980AF07CF90BF0E2F80690069BA7
:101120000093009B002B05D00B4A40F2F52100985C
:101130000AF06EF9FFF774FFFFF788FEFFF72CFF48
:1011400029F082FEFEF758FF0AF0E4FAFFF72CFEC2
:10115000FAE700BFA0D00400ECCC0400E4D0040007
:10116000553E03009C2D002000B587B003900291EE
:10117000019200930BF03EFC03468DF81730164B9E
:101180001B789DF817209A4208D29DF817301A460E
:10119000124901200DF04DFC0F2318E0009B019A2D
:1011A0000299039809F034F80490049B002B0DD0A9
:1011B0000B4B1B6801330A4A1360094B1B681A4624
:1011C000084901200DF035FC049B00E0002318467F
:1011D00007B05DF804FB00BF1C2B002034D10400D5
:1011E0006C3100208CD1040082B003468DF80730AA
:1011F000054A9DF807301370044B00221A60002343
:10120000184602B0704700BF1C2B00206C31002034
:1012100012DF704700BF18466DDF704700BF1846E9
:1012200084B00190244B0393019B002B40D0234BAF
:101230001A680399019B00BF00BF00BF00BF00BF39
:1012400000BF00BF00BF8A422FD000BF00BF00BF59
:1012500000BF00BF00BF00BF00BF00BF00BF00BF96
:1012600000BF00BF00BF00BF00BF00BF00BF00BF86
:1012700000BF00BF00BF00BF00BF00BF00BF00BF76
:1012800000BF00BF00BF00BF00BF00BF00BF00BF66
:1012900000BF00BF00BF00BF00BF00BF00BF00BF56
:1012A00000BF00BF00BF00BF00BF013BC3D101931F
:1012B00000BF04B0704700BF0024F400182B0020CA
:1012C00000B583B00190019B4FF47A7202FB03F3E7
:1012D0001846FFF7A5FF00BF03B05DF804FB82B01E
:1012E00001904FF0A043184602B0704700B585B09A
:1012F0000190084611461A4603468DF803300B4606
:101300008DF8023013468DF8013001AB1846FFF717
:10131000E6FF0390019A9DF803109DF802305B00F0
:1013200019439DF801309B0019439DF818301B02AA
:1013300019439DF81C301B041943039B02F5E0720E
:1013400043F8221000BF05B05DF804FB00B585B07E
:101350000390002301930023009300230122012125
:101360000398FFF7C3FF00BF05B05DF804FB00B5AD
:1013700085B0019001AB1846FFF7B1FF0390019BC8
:10138000012202FA03F31946039800F018F800BF8F
:1013900005B05DF804FB00B585B0019001AB1846BF
:1013A000FFF79DFF0390019B012202FA03F3194608
:1013B000039800F00EF800BF05B05DF804FB82B0A2
:1013C00001900091019B009AC3F8082500BF02B06C
:1013D000704782B001900091019B009AC3F80C25E0
:1013E00000BF02B07047000000B58FB003900DF150
:1013F0002F031846FFF70CFF0C900C9B002B0CD012
:1014000033480DF0FFFA02460C9B00933A23314912
:1014100002200DF039FB0C9B55E09DF82F30002B7E
:1014200001D102234FE00AAB1846FFF7F5FE0C90FE
:101430000C9B002B0CD026480DF0E4FA02460C9BC6
:1014400000934323234902200DF01EFB0C9B3AE03E
:1014500005AB00221A605A609A60DA601A8206238D
:101460008DF8373025E09DF83730062B0AD005ABD4
:1014700018462BF025F8024605AB134416491846CA
:101480002AF041FF05AB18462BF01AF8024605ABCF
:1014900098189DF83730013B0EAA134413F80F3CFF
:1014A0001A460E492AF02FFF9DF83730013B8DF880
:1014B00037309DF83730002BD5D105AB194603984E
:1014C0002AF0DCFF002318460FB05DF804FB00BFD4
:1014D000CCD1040034D2040088D204008CD20400A1
:1014E00030B589B003AB83E8060003468DF81730AA
:1014F0009DF817009DF80C109DF80D409DF80E50BA
:101500009DF80F309DF81020019200932B46224643
:1015100004F0F4FF0790079B002B0CD008480DF057
:1015200071FA0246079B00936923064902200DF0D9
:10153000ABFA079B00E00023184609B030BD00BF9E
:10154000CCD1040034D2040030B587B003AB83E8BB
:10155000060003468DF817309DF817301E2B33D048
:101560009DF817009DF80C109DF80D409DF80E5049
:101570009DF80F309DF81020019200932B462246D3
:10158000FFF7B4FE9DF81130012B09D0022B1AD0C1
:10159000002B0BD19DF817301846FFF7FCFE13E027
:1015A0009DF817301846FFF7E2FE0DE008480DF0F1
:1015B00029FA0246062300938B23064902200DF0E8
:1015C00063FA062301E000BF0023184607B030BDD0
:1015D000CCD1040034D2040000B59FB003468DF88E
:1015E0000F3004AB6022002118462AF013FF0123BC
:1015F0008DF8283002238DF82D3001238DF83330FB
:1016000001238DF8393001238DF83F3001238DF807
:10161000523001238DF8543002238DF857300123C6
:101620008DF8583001238DF85A3002238DF85D3043
:1016300001238DF8633001238DF8693001238DF883
:101640006F309DF80F30002B3DD00023ADF8763081
:1016500000238DF875301CE09DF8752013465B0063
:1016600013445B001EAA1344633B1B78012B0BD170
:101670009DF87530012202FA03F31AB2BDF97630F3
:1016800013431BB2ADF876309DF8753001338DF8F9
:1016900075309DF875300F2BDED9BDF876301846C1
:1016A00005F070F91C901C9B002B0CD022480DF00B
:1016B000A9F902461C9B0093AC23204902200DF09F
:1016C000E3F91C9B33E000238DF874302AE09DF889
:1016D000742013465B0013445B001EAA1344683B4E
:1016E0009DF874001A68002111469A88002362F35D
:1016F0000F031A46FFF7F4FE1C901C9B002B0CD026
:101700000D480DF07FF902461C9B0093B2230B4954
:1017100002200DF0B9F91C9B09E09DF874300133EB
:101720008DF874309DF874300F2BD0D900231846F3
:101730001FB05DF804FB00BFCCD1040034D204001C
:1017400000B5B5B01F4A02AB1146C02218462AF0B8
:1017500037FE00238DF8CF302AE09DF8CF201346C6
:101760005B0013445B0034AA1344C83B9DF8CF00D0
:101770001A68002111469A88002362F30F031A4663
:10178000FFF7E2FE3290329B002B0CD00E480DF09A
:1017900039F90246329B0093C5230C4902200DF013
:1017A00073F9329B09E09DF8CF3001338DF8CF30CB
:1017B0009DF8CF301F2BD0D90023184635B05DF8E7
:1017C00004FB00BF94D20400CCD1040034D2040046
:1017D00000B587B00390FFF7B3FF0590059B002B82
:1017E0000CD022480DF00EF90246059B0093E4232D
:1017F0001F4902200DF048F9059B32E01E20FFF73B
:10180000A5FD1E20FFF7B3FD0520FFF759FD0121BF
:10181000039805F007F90590059B002B0CD01348A1
:101820000DF0F0F80246059B0093EB2310490220CF
:101830000DF02AF9059B14E00120FFF7CDFE05907D
:10184000059B002B0CD009480DF0DCF80246059BE7
:101850000093EE23064902200DF016F9059B00E0E7
:101860000023184607B05DF804FB00BFCCD104008C
:1018700034D204007ADF704700BF18467CDF70471F
:1018800000BF18467FDF704700BF18468FDF7047E4
:1018900000BF1846A9DF704700BF1846ADDF70478C
:1018A00000BF184669DF704700BF184666DF704703
:1018B00000BF184631DF704700BF18463DDF704754
:1018C00000BF184684B00190244B0393019B002B6A
:1018D00040D0234B1A680399019B00BF00BF00BF93
:1018E00000BF00BF00BF00BF00BF8A422FD000BFB3
:1018F00000BF00BF00BF00BF00BF00BF00BF00BFF0
:1019000000BF00BF00BF00BF00BF00BF00BF00BFDF
:1019100000BF00BF00BF00BF00BF00BF00BF00BFCF
:1019200000BF00BF00BF00BF00BF00BF00BF00BFBF
:1019300000BF00BF00BF00BF00BF00BF00BF00BFAF
:1019400000BF00BF00BF00BF00BF00BF00BF013B22
:10195000C3D1019300BF04B0704700BF0024F4005E
:10196000182B002000B583B00190019B4FF47A72D0
:1019700002FB03F31846FFF7A5FF00BF03B05DF8B5
:1019800004FB000000B583B001900091009B1B7820
:10199000012B09D0022B02D0002B0AD00EE00C49FB
:1019A00003200DF035F80EE00A4903200DF030F861
:1019B00009E0094903200DF02BF804E00749022053
:1019C0000DF026F800BF00BF03B05DF804FB00BFB8
:1019D0000CD404004CD4040088D40400C8D40400FF
:1019E00000B587B09DF804306FF303038DF8043021
:1019F0009DF804306FF307138DF804301B482AF06C
:101A00005FFD03469AB201AB18491846FFF736FF4F
:101A10000590059B0493049B002B04D0144A8A2153
:101A2000049809F0F5FC02AB0822002118462AF0C0
:101A3000F1FC4623ADF808309623ADF80A300023B8
:101A4000ADF80C304FF4A073ADF80E3002AB184671
:101A5000FFF710FF0590059B002B01D0059B00E0D0
:101A60000023184607B05DF804FB00BF04D504004E
:101A700010D5040000B583B00190019B1B78002BAA
:101A800004D1084901200CF0C3FF07E0019B1B783B
:101A9000012B03D1044903200CF0BAFF00BF03B0AF
:101AA0005DF804FB8CD50400DCD5040000B583B0E0
:101AB0000190019A064901200CF0BBFF054AC5219F
:101AC000019809F0A5FC00BF03B05DF804FB00BF5E
:101AD00028D6040010D5040000B58BB002AB1C2240
:101AE000002118462AF096FC6B4608220021184671
:101AF0002AF090FC4623ADF800309623ADF8023072
:101B00000023ADF804304FF4A073ADF806306B46F7
:101B100002934FF4004303934FF470230493032381
:101B20008DF814300023ADF8163000238DF81830EE
:101B3000094B0793094B089302AB184606F07CFE4D
:101B40000990099B002B01D0099B00E00023184657
:101B50000BB05DF804FB00BF751A0200AD1A02005D
:101B600000B589B003468DF807309DF80730002B8B
:101B700007D0032B00D020E0124903200CF048FFCF
:101B80001BE0114903200CF043FF02238DF80C30B9
:101B90000E4B1B6803AA10469847032006F098FCDA
:101BA0000790079B0693069B002B05D0084A40F23E
:101BB0000311069809F02CFC00BF00BF09B05DF8C6
:101BC00004FB00BF64D604009CD6040070310020E2
:101BD00010D5040000B58FB00190019B1B88013B1C
:101BE000542B00F24B8101A252F823F0CB1D0200CE
:101BF0007D1E02007D1E02007D1E02007D1E020071
:101C00007D1E02007D1E02007D1E02007D1E020060
:101C10007D1E02007D1E02007D1E02007D1E020050
:101C20007D1E02007D1E0200411D0200631D020098
:101C30007D1E02007B1D02007D1E02007D1E020033
:101C40007D1E02007D1E02007D1E02007D1E020020
:101C50007D1E02007D1E02007D1E02007D1E020010
:101C60007D1E02007D1E02007D1E0200371E020046
:101C7000731E02007D1E02007D1E02007D1E0200FA
:101C80007D1E02007D1E02007D1E02007D1E0200E0
:101C90007D1E02007D1E02007D1E02007D1E0200D0
:101CA0007D1E02007D1E02007D1E02007D1E0200C0
:101CB0007D1E02007D1E02007D1E02007D1E0200B0
:101CC0007D1E02007D1E02007D1E02007D1E0200A0
:101CD000271E02007D1E02007D1E02007D1E0200E6
:101CE0007D1E02007D1E02007D1E02007D1E020080
:101CF0007D1E02007D1E02007D1E02007D1E020070
:101D00007D1E02007D1E02007D1E02007D1E02005F
:101D10007D1E02007D1E02007D1E02007D1E02004F
:101D20007D1E02007D1E02007D1E02007D1E02003F
:101D3000A31D02007D1E02007D1E0200F11D020097
:101D4000564903200CF064FE019B9A88544B1A807C
:101D500000238DF81430534B1B6805AA1046984792
:101D600097E0019B1B7A1A464F4903200CF061FE55
:101D70004B4B4FF6FF721A808BE0494B18880023BB
:101D800000228521FFF77EFD0D900D9B0C930C9B8F
:101D9000002B75D0454A4FF494710C9809F038FB2C
:101DA0006EE03F4B1888002300220021FFF772FDF0
:101DB0000D900D9B0B930B9B002B63D03B4A4FF474
:101DC00097710B9809F024FB5CE0354B1B880021D0
:101DD0001846FFF76BFD0D900D9B0A930A9B002B95
:101DE00052D0324A40F233110A9809F011FB4BE00D
:101DF000019BDB881A462E4903200CF01AFE019B3A
:101E00009B884FF48A711846FFF748FD0D900D9B93
:101E10000993099B002B39D0244A4FF49D710998EE
:101E200009F0F6FA32E0019B5B891A46214903204A
:101E30000CF0FFFD2DE003AB0822002118462AF02C
:101E4000E9FA1D4903200CF0E3FD019B9B8803A9DF
:101E500000221846FFF71AFD0D900D9B0893089B72
:101E6000002B15D0114A4FF4A571089809F0D0FA4B
:101E70000EE0124903200CF0CBFD0AE000BF08E0A1
:101E800000BF06E000BF04E000BF02E000BF00E0CA
:101E900000BF00BF0FB05DF804FB00BFD4D6040044
:101EA0001E2B00207031002010D7040010D5040034
:101EB00060D70400B0D70400FCD704004CD804005D
:101EC00000B585B00190019806F0A2FE019806F0D9
:101ED000E5FD0023039312E0124B1A68039BDB001D
:101EE00013445B68002B07D00E4B1A68039BDB0082
:101EF00013445B6801989847039B013303930A4B93
:101F00001B68039A9A42E7D3019908480CF0CDF96F
:101F10000198FFF75FFE019806F0C4FB00BF05B013
:101F20005DF804FB743100207831002094310020EA
:101F300000B583B00190019806F0D0FB00BF03B05C
:101F40005DF804FB00B58FB06D4B1B68049304A8CB
:101F50006C4B4FF4A6726C490CF0FCFB0D900D9B82
:101F60000C930C9B002B05D0684A4FF4C7710C985A
:101F700009F04EFA0023039303AB18460CF0AEFCB5
:101F80000B900B9B0A930A9B002B05D05F4A4FF4E2
:101F9000C9710A9809F03CFA6B460C2200211846D8
:101FA0002AF038FA01238DF80030039A6B4619465F
:101FB0004020FFF777FC0B900B9B0993099B002BAC
:101FC00005D0524A40F29911099809F021FA6B465E
:101FD0000C22002118462AF01DFA9DF8003043F02B
:101FE00001038DF80030039A6B461946A020FFF7D5
:101FF00059FC0B900B9B0893089B002B05D0434A80
:102000004FF4CF71089809F003FA6B460C220021B7
:1020100018462AF0FFF901238DF800304FF48A7337
:10202000ADF80230039A6B4619462320FFF73AFCBD
:102030000B900B9B0793079B002B05D0334A40F274
:10204000A511079809F0E4F96B460C220021184607
:102050002AF0E0F901238DF800304FF4A073ADF8B9
:10206000043001238DF80230039A6B461946202074
:10207000FFF718FC0B900B9B0693069B002B05D0DB
:10208000224A40F2AD11069809F0C2F903AB184696
:102090000CF034FC0B900B9B0593059B002B05D09B
:1020A0001A4A4FF4D971059809F0B2F918480CF0A2
:1020B000BDFB0B900B9B002B01D00B9B1BE015482D
:1020C0000CF0C4FB0B900B9B002B01D00B9B12E080
:1020D0000120FFF7EFFB0B900B9B002B01D00B9B1C
:1020E00009E00120FFF7EAFB0B900B9B002B01D0CE
:1020F0000B9B00E0002318460FB05DF804FB00BF07
:1021000094D8040079E30200AC31002010D504001B
:10211000C11E0200311F020000B5ABB01AAB3C2259
:10212000002118462AF076F902238DF86830002342
:102130008DF86A3006238DF86B3003AB2022002126
:1021400018462AF067F901238DF80F304FF4BE735B
:102150000793002308930BAB3C22002118462AF07A
:1021600059F90123ADF83C30114B109303AA0BA988
:102170001AA8002300930F4B06F0A6F82990299B7C
:10218000002B0DD00C480CF03DFC0246299B00931F
:1021900040F2ED13094902200CF076FC299B03E084
:1021A000012006F083F8002318462BB05DF804FBED
:1021B000202B0020611B020010D5040098D80400D9
:1021C00000B589B00190009104AB042200211846AB
:1021D0002AF020F90023079318E0079BDB00019AFF
:1021E00013441B68002B0ED0079BDB00019A13449D
:1021F0001B681A4A1278104698470690069B002BD7
:1022000001D0069B26E0079B01330793079A009BAA
:102210009A42E2D302AB0822002118462AF0FAF8CB
:102220000F4B029301238DF80C3001238DF80D30F4
:1022300002AB19460B480BF0ADFE0690069B0593CA
:10224000059B002B05D0084A40F21B21059809F098
:10225000DFF80023184609B05DF804FB7C3100204C
:10226000851902009431002010D5040000B585B016
:102270000190019B1B68454A1360019B5B68444ABF
:102280001360019B9B68434A1360FFF75BFE03905A
:10229000039B002B06D0039A3F4901200CF0C9FB99
:1022A000039B6EE03D4A3D4BD3F8883043F4700306
:1022B000C2F88830BFF34F8FBFF36F8FFFF790FBEB
:1022C0000390039B002B06D0039A354901200CF0A4
:1022D000B0FB039B55E02E4B1A682E4B1B6819462A
:1022E0001046FFF76DFF0390039B002B06D0039A67
:1022F0002C4901200CF09DFB039B42E0FFF70CFFF3
:102300000390039B002B06D0039A274901200CF071
:1023100090FB039B35E0FFF7DFFB0390039B002B53
:1023200006D0039A214901200CF083FB039B28E08F
:10233000032006F0CDF80390039B002B06D0039AF0
:102340001B4901200CF075FB039B1AE01948FFF7AD
:102350004BF80390039B002B06D0039A16490120EB
:102360000CF067FB039B0CE012480CF04BFB0346A0
:102370001A46124913200CF05CFB0A20FFF7F2FA10
:102380000023184605B05DF804FB00BF7031002043
:102390007431002078310020ECD8040000ED00E01A
:1023A00028D9040064D90400B0D90400ECD9040091
:1023B00028DA04008031002068DA0400A4DA04007E
:1023C000024BD3F804351846704700BF00B00040F8
:1023D00010B584B003468DF80F309DF80F30002BF8
:1023E00014BF01230023DAB21D4B1A701C4B1B785B
:1023F000002B31D01B4B1B6803F48043002B2BD0E8
:10240000194B1B68012B27DD2F21184829F0BEFF2F
:102410000346002B06D02F21144829F0B7FF0346AE
:102420005C1C0EE05C21114829F0B0FF0346002B34
:1024300006D05C210D4829F0A9FF03465C1C00E092
:102440000A4CFFF7BDFF0246094B009313466C226E
:102450002146022011F032FD00BF04B010BD00BFC4
:10246000242B00202C2B0020302B0020B8DA040075
:102470003CDB04002DE9F0478CB004AF0346FB7150
:102480005A4B1B78002B00F0A980FB7983F00103E5
:10249000DBB2002B00F0A280544B00221A70002304
:1024A000FB7795E0524B1B6803F48043002B00F050
:1024B0008380504B1B68012B7EDD6B469A461023B0
:1024C0007B617B695B00591C0B46013B3B610A4603
:1024D0004FF00003DD0045EA5275D4000A464FF084
:1024E00000034FEAC30949EA52794FEAC208CB1DFB
:1024F000DB08DB00ADEB030D04AB0033FB60002316
:10250000BB6123E0FB7F3C4A1B011A44BB691344B7
:102510001B78FB72BB695B00384A1168FA7A1209B2
:10252000D2B202F00F020A441178FA68D154BB69A2
:102530005B000133314A1168FA7A02F00F020A4453
:102540001178FA68D154BB690133BB61BA697B6900
:102550009A42D7D37B695B00FA680021D1542F21BE
:10256000274829F013FF0346002B06D02F212448CB
:1025700029F00CFF03465E1C0EE05C21204829F088
:1025800005FF0346002B06D05C211D4829F0FEFE06
:1025900003465E1C00E01A4EFFF712FF0246FB687E
:1025A0000293184B0193184B009313467722314640
:1025B000022011F083FCD546F97FFB7F1B010E4AF8
:1025C0001A441023002001F09BFBFB7F0133FB77B3
:1025D0000E4B1B78FA7F9A42FFF464AF034AFB79F3
:1025E000137000BF2037BD46BDE8F087F8320020E9
:1025F0002C2B0020302B0020FC320020282B002028
:10260000B8DA040058DB040060DB04009C330020CF
:1026100008B5A0220021044829F0FCFE034B00224B
:102620001A7000BF08BD00BFFC3200209C330020A0
:1026300000B58BB001905F238DF808305F238DF8D3
:1026400009306E238DF80A306F238DF80B3072231A
:102650008DF80C3064238DF80D3069238DF80E3021
:1026600063238DF80F305F238DF810305F238DF8D2
:10267000113073238DF8123065238DF813306D23DC
:102680008DF8143069238DF815305F238DF81630DE
:102690005F238DF817300023ADF818300023ADF814
:1026A0001A300023ADF81C30124B1B88ADF81E30D9
:1026B0009DF820306FF300038DF820309DF8203016
:1026C0006FF341038DF8203002AA002301990A48D4
:1026D00023F037FE0990099B002B04D0074A912173
:1026E000099808F095FE064B02221A7000BF0BB045
:1026F0005DF804FBF2360020C0350020B8DA040093
:10270000F03600202DE9F0418CB004AFF87181481B
:102710000078FD79854234D97F4B1B6803F48043F0
:10272000002B00F0F1807D4B1B68012B40F3EC8007
:102730002F217B4829F02AFE0346002B06D02F21AB
:10274000774829F023FE03465C1C0EE05C217448A8
:1027500029F01CFE0346002B06D05C21704829F0AE
:1027600015FE03465C1C00E06D4CFFF729FE024697
:102770006C4B0093134698222146022011F09EFBD9
:10278000C2E06548006800F48040002800F08180C5
:102790006248006801287CDD684680461020B861E8
:1027A000B869400001300546013D7D6105464FF0A6
:1027B0000006F20042EA5572E90001464FF00002BD
:1027C000D40044EA5174CB00C31DDB08DB00ADEB41
:1027D000030D04AB00333B610023FB6123E0FB7975
:1027E000514A1B011A44FB6913441B78FB73FB69B4
:1027F0005B004E4A1168FA7B1209D2B202F00F0256
:102800000A4411783A69D154FB695B000133474AA5
:102810001168FA7B02F00F020A4411783A69D15428
:10282000FB690133FB61FA69BB699A42D7D3BB6983
:102830005B003A690021D1542F21394829F0A6FDC7
:102840000346002B06D02F21354829F09FFD034673
:102850005C1C0EE05C21324829F098FD0346002BF9
:1028600006D05C212E4829F091FD03465C1C00E057
:102870002B4CFFF7A5FD02463B6902932C4B0193BD
:102880002C4B009313469C222146022011F016FB8C
:10289000C546FB791B01244A1344184600F04EF844
:1028A000FFF7B6FE1C4B1B6803F48043002B2BD0B4
:1028B0001A4B1B68012B27DD2F21194829F066FDD3
:1028C0000346002B06D02F21154829F05FFD034653
:1028D0005C1C0EE05C21124829F058FD0346002BD9
:1028E00006D05C210E4829F051FD03465C1C00E037
:1028F0000B4CFFF765FD02460F4B009313469F22DA
:102900002146022011F0DAFA00BF2037BD46BDE8AB
:10291000F08100BF9C3300202C2B0020302B0020A6
:10292000B8DA040068DB0400FC320020282B002009
:1029300080DB040060DB0400A0DB04002DE9F04133
:102940008CB004AF78604748006800F480400028ED
:102950007DD045480068032879DD68468046102010
:10296000B861B869400001300546013D7D6105460A
:102970004FF00006F20042EA5572E90001464FF0BE
:102980000002D40044EA5174CB00C31DDB08DB0015
:10299000ADEB030D04AB00333B610023FB6120E092
:1029A0007A68FB6913441B78FB73FB695B002F4A51
:1029B0001168FA7B1209D2B202F00F020A441178B0
:1029C0003A69D154FB695B000133284A1168FA7BEC
:1029D00002F00F020A4411783A69D154FB690133BD
:1029E000FB61FA69BB699A42DAD3BB695B003A6959
:1029F0000021D1542F211E4829F0C8FC0346002B8A
:102A000006D02F211A4829F0C1FC03465C1C0EE0B9
:102A10005C21174829F0BAFC0346002B06D05C2144
:102A2000134829F0B3FC03465C1C00E0104CFFF790
:102A3000C7FC02463B6902930E4B01930E4B009379
:102A40001346A5222146042011F038FAC5467868BD
:102A5000FFF7EEFD094B02221A7000BF2037BD467A
:102A6000BDE8F0812C2B0020302B0020282B0020EB
:102A7000B8DA0400B0DB040060DB0400F0360020AC
:102A800010B5A2B0A14B1B78033B072B00F2BA8212
:102A900001A252F823F000BFB92A0200BF2A0200A7
:102AA0003D2B0200CF2B02006F2C0200352D0200BF
:102AB0003B2E0200472F0200944B04221A70944BC5
:102AC0001B6803F48043002B2BD0924B1B68032B15
:102AD00027DD2F21904829F059FC0346002B06D012
:102AE0002F218D4829F052FC03465C1C0EE05C212E
:102AF000894829F04BFC0346002B06D05C21864810
:102B000029F044FC03465C1C00E0834CFFF758FCB2
:102B10000246824B00931346B5222146042011F051
:102B2000CDF923F043F92190219B002B00F077820F
:102B3000794AB621219808F06BFC70E2744B1B684F
:102B400003F48043002B2BD0724B1B68032B27DD33
:102B50002F21714829F01AFC0346002B06D02F21A3
:102B60006D4829F013FC03465C1C0EE05C216A48AA
:102B700029F00CFC0346002B06D05C21664829F0A6
:102B800005FC03465C1C00E0634CFFF719FC0246A1
:102B9000634B00931346BD222146042011F08EF9A9
:102BA000604B13AC0FCB84E80F0013AB1A46002127
:102BB000002023F03FF92090209B002B00F0318271
:102BC000554ABF21209808F023FC00BF29E2504B52
:102BD0001B6803F48043002B2BD04E4B1B68032B48
:102BE00027DD2F214C4829F0D1FB0346002B06D0CE
:102BF0002F21494829F0CAFB03465C1C0EE05C21EA
:102C0000454829F0C3FB0346002B06D05C2142480F
:102C100029F0BCFB03465C1C00E03F4CFFF7D0FBF7
:102C20000246414B00931346C6222146042011F070
:102C300045F94FF6FF73ADF84A300223ADF848303E
:102C40003A4B1B88ADF87E30BDF87E30129A0021D9
:102C5000184623F0DFF91E901E9B002B00F0E38145
:102C60002D4ACB211E9808F0D3FB00BFDBE1284B97
:102C70001B6803F48043002B2BD0264B1B68032BCF
:102C800027DD2F21244829F081FB0346002B06D0A5
:102C90002F21214829F07AFB03465C1C0EE05C21C1
:102CA0001D4829F073FB0346002B06D05C211A480F
:102CB00029F06CFB03465C1C00E0174CFFF780FB1F
:102CC00002461B4B00931346D2222146042011F0EA
:102CD000F5F85923ADF846300223ADF84430134BD4
:102CE0001B88ADF87630BDF87630119A0021184671
:102CF00023F090F91C901C9B002B00F09681064A53
:102D0000D7211C9808F084FB00BF8EE1F03600202C
:102D10002C2B0020302B0020B8DA0400C8DB040084
:102D2000E4DB0400DCDC0400F4DB0400F236002009
:102D300018DC04000BAB00221A605A609A60DA605B
:102D40001A615A61BE4B1B88ADF82C3001238DF8F7
:102D500030300123ADF832300023ADF83830002395
:102D60008DF83A300A238DF83B309DF83C30012233
:102D700062F387038DF83C309DF83C3043F0030349
:102D80008DF83C3001238DF83D3000238DF83E3026
:102D90004FF0FF338DF841304FF0FF338DF8423064
:102DA000002343F002038DF83F3000238DF84030BC
:102DB000A44B1B6803F48043002B2ED0A24B1B684E
:102DC000032B2ADD2F21A14829F0E0FA0346002B2E
:102DD00006D02F219D4829F0D9FA03465C1C0EE04D
:102DE0005C219A4829F0D2FA0346002B06D05C21D8
:102DF000964829F0CBFA03465C1C00E0934CFFF7A1
:102E0000DFFA0246BDF832300193914B009313462E
:102E1000EB222146042011F051F80BAB184623F0A9
:102E20006FF81B901B9B002B00F00181874AED215E
:102E30001B9808F0EDFA00BFF9E005AB00221A601C
:102E40005A609A60DA601A615A617D4B1B88ADF84E
:102E5000143001238DF81830794B1B88FF3B9BB24F
:102E6000ADF81A300023ADF8203000238DF8223061
:102E70000A238DF823309DF824306FF387038DF8F3
:102E800024309DF824306FF301038DF824300123A2
:102E90008DF8253000238DF82630002343F05903A8
:102EA0008DF8293000238DF82A30002343F00203E7
:102EB0008DF8273000238DF82830624B1B6803F40F
:102EC0008043002B2FD0604B1B68032B2BDD2F2161
:102ED0005E4829F05BFA0346002B06D02F215B48A1
:102EE00029F054FA03465C1C0EE05C21574829F097
:102EF0004DFA0346002B06D05C21544829F046FACF
:102F000003465C1C00E0514CFFF75AFA0246BDF83C
:102F10001A3001934F4B0093134640F201122146A1
:102F2000042010F0CBFF05AB184622F0E9FF1A9001
:102F30001A9B002B7DD0454A40F203111A9808F0E5
:102F400067FA00BF75E03F4B1B6803F48043002B1A
:102F50002CD03D4B1B68032B28DD2F213B4829F04B
:102F600015FA0346002B06D02F21384829F00EFA17
:102F700003465C1C0EE05C21344829F007FA034646
:102F8000002B06D05C21314829F000FA03465C1C76
:102F900000E02E4CFFF714FA02462F4B0093134625
:102FA0004FF485722146042010F088FF244B1B88C3
:102FB000ADF8663000238DF80C300023ADF80E30EC
:102FC0000023049303238DF80C304CF6FE23ADF858
:102FD0000E305923ADF80A300223ADF80830BDF8A1
:102FE0006600029B03AA06CA22F0AEFF1890189B47
:102FF000002B20D0154A4FF48971189808F008FA70
:1030000000BF18E07B461793144B1B68002B04D0BD
:10301000124B1B68179898470EE000DE0CE000BFCB
:103020000AE000BF08E000BF06E000BF04E000BF08
:1030300002E000BF00E000BF00BF22B010BD00BF33
:10304000F23600202C2B0020302B0020B8DA0400B0
:1030500044DC040084DC0400C4DC0400684E00206E
:103060002DE9F04F93B004AF7860012187F8361056
:10307000AF49096801F48041002900F08280AD4920
:10308000096801297DDD694639601021B962B96A94
:1030900049004E1C31460139796230464FF000013B
:1030A0004FEAC10B4BEA507B4FEAC00A30464FF063
:1030B0000001CB0043EA5073C200F31DDB08DB00C4
:1030C000ADEB030D04AB00333B6200233B6320E018
:1030D0007A683B6B13441B78FB773B6B5B00964A2B
:1030E0001168FA7F1209D2B202F00F020A44117875
:1030F0003A6AD1543B6B5B0001338F4A1168FA7F07
:1031000002F00F020A4411783A6AD1543B6B013342
:103110003B633A6BBB6A9A42DAD3BB6A5B003A6A9A
:103120000021D1542F21854829F030F90346002B86
:1031300006D02F21814829F029F903465E1C0EE0B4
:103140005C217E4829F022F90346002B06D05C2141
:103150007A4829F01BF903465E1C00E0774EFFF722
:103160002FF902463B6A0293754B0193754B00930E
:10317000134640F223123146022010F09FFED7F88A
:1031800000D0002387F8373014E097F837301B0160
:103190006D4A134410227968184629F0C9F803468D
:1031A000002B02D1002387F8363097F837300133EF
:1031B00087F8373097F83730092BE6D997F836304B
:1031C000002B12D0614B1B78082B0ED85F4B1B785D
:1031D0001B015D4A13447968184629F04FF95B4B8F
:1031E0001B780133DAB2594B1A70002387F8373055
:1031F00091E04F4B1B6803F48043002B00F0868066
:103200004C4B1B68012B40F381806B469A46102380
:10321000BB61BB695B00591C0B46013B7B610A46E5
:103220004FF00003DD0045EA5275D4000A464FF026
:1032300000034FEAC30949EA52794FEAC208CB1D9D
:10324000DB08DB00ADEB030D04AB00333B61002377
:10325000FB6224E097F837303B4A1B011A44FB6AB3
:1032600013441B78FB73FB6A5B00334A1168FA7BDB
:103270001209D2B202F00F020A4411783A69D1540D
:10328000FB6A5B0001332C4A1168FA7B02F00F02E3
:103290000A4411783A69D154FB6A0133FB62FA6A35
:1032A000BB699A42D6D3BB695B003A690021D1540D
:1032B0002F21224829F06AF80346002B06D02F213F
:1032C0001E4829F063F803465E1C0EE05C211B4893
:1032D00029F05CF80346002B06D05C21174829F042
:1032E00055F803465E1C00E0144EFFF769F80246ED
:1032F0003B690293124B0193124B0093134640F229
:1033000033123146022010F0D9FDD54697F83730F8
:10331000013387F837300D4B1B7897F837209A42E6
:10332000FFF467AF00BF18463C37BD46BDE8F08FDD
:103330002C2B0020302B0020282B0020B8DA040092
:10334000ECDC040060DB0400FC3200209C33002035
:1033500010B58AB00390039B1B78082B00F2FD8107
:1033600001A252F823F000BF8D330200F3360200B1
:103370003D3402005B3702005B3702005D3602001D
:103380005B3702003B35020029350200A84B1B7851
:10339000012B40F0E481A74B1B78002B08D0039B46
:1033A00004331846FFF744F9A14B02221A70D6E104
:1033B000A04B1B7883F00103DBB2002B00F0CF8120
:1033C0009D4B1B78002B00F0CA819C4B1B6803F4BB
:1033D0008043002B2CD09A4B1B68032B28DD2F2118
:1033E000984828F0D3FF0346002B06D02F2195489C
:1033F00028F0CCFF03465C1C0EE05C21914828F0CD
:10340000C5FF0346002B06D05C218E4828F0BEFF86
:1034100003465C1C00E08B4CFEF7D2FF02468A4B51
:103420000093134640F247122146042010F046FD57
:10343000039B04331846FFF713FE90E17F4B1B6894
:1034400003F48043002B2CD07D4B1B68032B28DD1D
:103450002F217C4828F09AFF0346002B06D02F210D
:10346000784828F093FF03465C1C0EE05C21754809
:1034700028F08CFF0346002B06D05C21714828F011
:1034800085FF03465C1C00E06E4CFEF799FF024688
:103490006E4B009313464FF4A7722146042010F0A0
:1034A0000DFD634B1B78022B36D1644B1B6803F474
:1034B0008043002B2CD0624B1B68032B28DD2F216F
:1034C000604828F063FF0346002B06D02F215D489B
:1034D00028F05CFF03465C1C0EE05C21594828F094
:1034E00055FF0346002B06D05C21564828F04EFFBE
:1034F00003465C1C00E0534CFEF762FF0246544B4F
:103500000093134640F251122146042010F0D6FCDD
:10351000474B01221A7024E1454B1B78032B40F0E6
:103520002081FFF7ADFA1CE1414B00221A70039B8A
:1035300004331846FDF776F81AE1039B5868102308
:103540000022012122F035FF0990099B002B38D081
:103550003A4B1B6803F48043002B2ED0384B1B687A
:10356000002B2ADD2F21374828F010FF0346002BBF
:1035700006D02F21334828F009FF03465C1C0EE0DB
:103580005C21304828F002FF0346002B06D05C2166
:103590002C4828F0FBFE03465C1C00E0294CFEF79B
:1035A0000FFF0246099B01932A4B009313464FF4E9
:1035B000B4722146012010F081FC1D4B01221A70CB
:1035C000D1E01E4B1B6803F48043002B00F0CB803E
:1035D0001B4B1B68032B40F3C6802F21194828F092
:1035E000D5FE0346002B06D02F21164828F0CEFE2C
:1035F00003465C1C0EE05C21124828F0C7FE03461F
:10360000002B06D05C210F4828F0C0FE03465C1C4E
:1036100000E00C4CFEF7D4FE02460F4B009313461D
:1036200040F26D122146042010F048FC9BE000BFE0
:10363000F0360020242B0020F83200202C2B002014
:10364000302B0020B8DA0400F8DC040004DD0400AC
:1036500024DD040048DD04008CDD0400464B04AC8E
:103660000FCB84E80F00039B5B6804A91022184667
:1036700022F0C3FE0890089B002B05D03F4A40F281
:103680007511089807F0C4FE3D4B1B6803F4804396
:10369000002B6AD03B4B1B68032B66DD2F2137487C
:1036A00028F074FE0346002B06D02F21334828F063
:1036B0006DFE03465C1C0EE05C21304828F066FE7F
:1036C0000346002B06D05C212C4828F05FFE034601
:1036D0005C1C00E0294CFEF773FE02462A4B009367
:1036E00013464FF4BB722146042010F0E7FB00BFE5
:1036F0003BE0234B1B6803F48043002B37D0214B66
:103700001B68032B33DD2F211C4828F03FFE0346A6
:10371000002B06D02F21194828F038FE03465C1CE8
:103720000EE05C21154828F031FE0346002B06D040
:103730005C21124828F02AFE03465C1C00E00F4C76
:10374000FEF73EFE0246114B0093134640F27B12F9
:103750002146042010F0B2FB09E000BF08E000BFE2
:1037600006E000BF04E000BF02E000BF00E000BFD1
:1037700000BF0AB010BD00BFFCDD0400B8DA0400D1
:103780002C2B0020302B0020ACDD0400D4DD040005
:1037900000B583B00346ADF806300A4ABDF80630DE
:1037A0001380094B1B78022B03D1074B03221A709D
:1037B00004E0054B03221A70FFF762F900BF03B063
:1037C0005DF804FBF2360020F036002082B003469C
:1037D000ADF80630044ABDF806301380034B0122D1
:1037E0001A7000BF02B07047F2360020F036002099
:1037F0002DE9F04393B004AF03463960FB711346E3
:10380000BB80FB79002B02D1FCF788FEC5E13B6849
:10381000002B0BD17B463B63984B1B68002B04D0DD
:10382000964B1B68386B984700E000DE3B681B88AE
:10383000022B40F09980924B1B78042B40F094802F
:10384000904B1B6803F48043002B00F087808E4B65
:103850001B68032B40F382806B461E46BB88FB62CD
:10386000FB6A5B00591C0B46013BBB620A464FF0EA
:1038700000034FEAC30949EA52794FEAC2080A46EF
:103880004FF00003DD0045EA5275D400CB1DDB0884
:10389000DB00ADEB030D04AB00337B6200237B63E5
:1038A00025E03B685B681A467B6B13441B7887F8FE
:1038B00023307B6B5B00754A116897F8232012094F
:1038C000D2B202F00F020A4411787A6AD1547B6BAB
:1038D0005B0001336D4A116897F8232002F00F0254
:1038E0000A4411787A6AD1547B6B01337B637A6B1B
:1038F000FB6A9A42D5D3FB6A5B007A6A0021D154F5
:103900002F21634828F042FD0346002B06D02F21CB
:103910005F4828F03BFD03465C1C0EE05C215C48E0
:1039200028F034FD0346002B06D05C21584828F0CF
:103930002DFD03465C1C00E0554CFEF741FD0246A0
:103940007B6A0293534B0193534B0093134640F20F
:10395000A5122146042010F0B1FAB546484B0522C5
:103960001A70FFF78DF818E13B681B8848F20302D4
:1039700093421FD1424B1B78052B1BD13B685B68E0
:103980001B78002B10D03B685B681B78062B0BD094
:103990007B46FB61394B1B68002B04D0374B1B68FF
:1039A000F869984700E000DE354B06221A70FFF7F1
:1039B00067F8F2E03B681B8848F23E0293421AD156
:1039C0002F4B1B78062B16D13B685B681B78002BAE
:1039D0000BD07B46BB61294B1B68002B04D0274BC7
:1039E0001B68B869984700E000DE254B07221A7073
:1039F000FFF746F8D1E03B681B8848F23E0293424D
:103A00001AD11F4B1B78072B16D13B685B681B78BC
:103A1000002B0BD07B467B61184B1B68002B04D01E
:103A2000164B1B687869984700E000DE144B0822AB
:103A30001A70FFF725F8B0E03B681B8848F21902BE
:103A400093422BD10E4B1B78082B27D13B685B6828
:103A50001B78002B0BD07B463B61084B1B68002B6F
:103A600004D0064B1B683869984700E000DE044B21
:103A700009221A70FFF704F88FE000BF684E00209B
:103A8000F03600202C2B0020302B0020282B00208B
:103A9000B8DA04000CDE040060DB04003B681B881D
:103AA00048F2190293421AD13E4B1B78092B16D1CA
:103AB0003B685B681B78002B0BD07B46FB603A4B66
:103AC0001B68002B04D0384B1B68F868984700E04F
:103AD00000DE344B0A221A70FEF7D2FF5DE03B682D
:103AE0001B8848F21F0293421AD12E4B1B780A2BD7
:103AF00016D13B685B681B78002B0BD07B46BB6004
:103B0000294B1B68002B04D0274B1B68B8689847CB
:103B100000E000DE234B00221A70FCF70DF93CE0B8
:103B20003B681B8848F21F02934236D11F4B1B682B
:103B300003F48043002B30D01D4B1B68012B2CDD80
:103B40002F211C4828F022FC0346002B06D02F21F1
:103B5000184828F01BFC03465C1C0EE05C2115484D
:103B600028F014FC0346002B06D05C21114828F0F5
:103B70000DFC03465C1C00E00E4CFEF721FC0246E7
:103B80003B685B681B7801930B4B0093134640F234
:103B9000D7122146022010F091F93C37BD46BDE80E
:103BA000F08300BFF0360020684E00202C2B002050
:103BB000302B0020B8DA040020DE040000B58BB002
:103BC000274B00221A70274A03AB07CA03C31A8087
:103BD0000233120C1A702449244822F0A5FB0990E4
:103BE000099B002B05D0224A4FF4F171099807F088
:103BF0000FFC03AA1F4B009313461B4A1B491E4888
:103C000022F012FB0890089B002B05D0184A40F2C6
:103C1000E311089807F0FCFB184824F0DBFA034690
:103C20001946154822F060FB0790079B002B05D032
:103C30000F4A4FF4F271079807F0EAFB0D4822F0A3
:103C4000FDFB0690069B002B05D0094A40F2E511CA
:103C5000069807F0DDFB00BF0BB05DF804FB00BF6A
:103C6000F036002038DE0400E0330020A0330020CE
:103C7000B8DA040051330200C035002000340020BF
:103C800000B583B001900199034805F0E9F900BF40
:103C900003B05DF804FB00BFF436002000B585B02A
:103CA00003468DF8073002AB04220021184628F0A5
:103CB000B1FB074B1B68029302AB1946054805F0A0
:103CC000F5F9039000BF184605B05DF804FB00BF8E
:103CD00010370020F436002000B583B001900B4669
:103CE000ADF80230BDF802301A460199034805F0DC
:103CF00035FA0346184603B05DF804FBF43600209D
:103D000000B58DB0029101921A460346ADF80E300F
:103D100013468DF80D3005AB00221A605A609A6088
:103D2000DA601A61C3F81320029B1B0ADBB28DF81C
:103D30001430029BDBB28DF81530BDF80E30DBB2CB
:103D40008DF816309DF80D2005AB03330199184608
:103D500028F036FB9DF80D309BB203339AB205ABC9
:103D600011461846FFF7B8FF0B900B9B18460DB095
:103D70005DF804FB00B583B001900091019B002B1E
:103D800001D10E230CE0084903200AF041FE074A46
:103D9000009B1360019B064A5A60019B054A1A600A
:103DA000184603B05DF804FB44DE04001037002021
:103DB000813C02009D3C020082B001904FF0A04384
:103DC000184602B0704700B585B00190084611460C
:103DD0001A4603468DF803300B468DF80230134621
:103DE0008DF8013001AB1846FFF7E6FF0390019A0A
:103DF0009DF803109DF802305B0019439DF80130D7
:103E00009B0019439DF818301B0219439DF81C3084
:103E10001B041943039B02F5E07243F8221000BF14
:103E200005B05DF804FB00B585B003900023019355
:103E3000002300930023012201210398FFF7C3FF11
:103E400000BF05B05DF804FB00B585B0019001AB83
:103E50001846FFF7B1FF0390019B012202FA03F31A
:103E60001946039800F018F800BF05B05DF804FB90
:103E700000B585B0019001AB1846FFF79DFF039098
:103E8000019B012202FA03F31946039800F00EF891
:103E900000BF05B05DF804FB82B001900091019B6A
:103EA000009AC3F8082500BF02B0704782B00190A5
:103EB0000091019B009AC3F80C2500BF02B0704727
:103EC00084B00190244B0393019B002B40D0234BE3
:103ED0001A680399019B00BF00BF00BF00BF00BF6D
:103EE00000BF00BF00BF8A422FD000BF00BF00BF8D
:103EF00000BF00BF00BF00BF00BF00BF00BF00BFCA
:103F000000BF00BF00BF00BF00BF00BF00BF00BFB9
:103F100000BF00BF00BF00BF00BF00BF00BF00BFA9
:103F200000BF00BF00BF00BF00BF00BF00BF00BF99
:103F300000BF00BF00BF00BF00BF00BF00BF00BF89
:103F400000BF00BF00BF00BF00BF013BC3D1019352
:103F500000BF04B0704700BF0024F400182B0020FD
:103F600082B00190064B1A68019BDB0013441B785A
:103F7000012B0CBF01230023DBB2184602B07047AF
:103F80001437002082B00190064B1A68019BDB00B9
:103F900013441B78002B0CBF01230023DBB218460F
:103FA00002B070471437002082B003468DF8073006
:103FB0009DF80730102B01D9012300E0002318469B
:103FC00002B0704700B585B003900B4601928DF8A2
:103FD0000B30019B00221A800398FFF7D3FF0346A2
:103FE000002B0CD0314B1A68039BDB0013445B7829
:103FF0001A46012393409AB2019B1A8050E003981D
:10400000FFF7AEFF0346002B48D09DF80B3003F0BE
:104010000103002B11D0019B1B881AB2234B196896
:10402000039BDB000B445B78194601238B401BB2DA
:1040300013431BB29AB2019B1A809DF80B3003F018
:104040000203002B11D0019B1B881AB2174B196871
:10405000039BDB000B449B78194601238B401BB26A
:1040600013431BB29AB2019B1A809DF80B3003F0E8
:104070000403002B14D0019B1B881AB20B4B196848
:10408000039BDB000B44DB78194601238B401BB2FA
:1040900013431BB29AB2019B1A8001E0012300E096
:1040A0000023184605B05DF804FB00BF143700205C
:1040B00082B00190019B074AA2FB03235A091346D1
:1040C0009B001344DB001A46019B1344184602B0C0
:1040D000704700BF1F85EB5100B587B00346ADF8B0
:1040E0000E30BDF80E300021184601F0A9FF0590F2
:1040F000059B002B0CD014480AF084FC0246059B5B
:104100000093C723114902200AF0BEFC059B17E06B
:10411000BDF80E301946002001F092FF0590059B76
:10412000002B0CD008480AF06DFC0246059B00935A
:10413000CA23064902200AF0A7FC059B00E00023E1
:10414000184607B05DF804FB5CDE0400C8DE04001E
:1041500000B58BB003468DF80730444B1B788DF8C3
:104160002730424B1B78002B06D19DF90730B3F165
:10417000FF3F01D1022374E03C4B1A789DF80730D1
:104180001344DAB2394B1A70384B1B78012B30D1FB
:104190009DF82730002B2CD1354B1B68184601F0B9
:1041A00083FD0890089B0793079B002B04D0314A9E
:1041B000EC21079807F02CF96021402001F080FFE6
:1041C0000890089B0693069B002B04D0294AF021F7
:1041D000069807F01DF902F015F90890089B059361
:1041E000059B002B3BD0234AF721059807F010F9D7
:1041F00035E01E4B1B78002B32D19DF82730012B68
:104200002ED11B4B1B68184601F04EFD0890089BF1
:104210000493049B002B04D0164AFC21049807F059
:10422000F7F86021002001F04BFF0890089B0393F2
:10423000039B002B04D00F4AFF21039807F0E8F8F6
:1042400002F0E0F80890089B0293029B002B07D035
:10425000084A4FF48371029807F0DAF800E000BFD3
:10426000002318460BB05DF804FB00BF293700207F
:10427000183700205CDE040000B587B003900B46C1
:104280008DF80B30314B1A68039BDB0013445B68DD
:104290001B685B7A8DF817309DF817302C4AD25680
:1042A0009DF80B302A49CB569A4240D09DF81730E2
:1042B000274AD2569DF80B302549CB569A4214DA3C
:1042C0000120FFF745FF0490049B002B2FD02148CD
:1042D0000AF098FB0246049B00934FF4A4731E4916
:1042E00002200AF0D1FB049B2CE09DF81730184AFD
:1042F000D2569DF80B301649CB569A4215DD4FF039
:10430000FF30FFF725FF0490049B002B0FD01148CE
:104310000AF078FB0246049B00934FF4A7730E4902
:1043200002200AF0B1FB049B0CE002230AE0074BD9
:104330001A68039BDB0013445B681B689DF80B2025
:104340005A720023184607B05DF804FB14370020AA
:1043500058DE04005CDE0400C8DE040070B590B0D6
:10436000019001990F91964908680F99C90001447D
:1043700049680968497A032900F20C8101A050F8C4
:1043800021F000BFB14502009543020059440200EC
:10439000B14502008A4908680F99C900014449687B
:1043A00009684968002945D0854908680F99C900FE
:1043B000014449684C68824908680F99C900014462
:1043C00049680968496808464FF00001CB0343EA91
:1043D0005043C20312F5FA7043F100014FF47A72B0
:1043E0004FF0000327F090FD02460B4611460F9B4D
:1043F0001A46204607F0D8FF0E900E9B0D930D9B9A
:10440000002B05D06F4A4FF4B9710D9807F000F8F2
:1044100002210F98FFF730FF0E900E9B0C930C9B20
:10442000002B00F0C780674A4FF4BB710C9806F070
:10443000EFFFBFE000210F98FFF71EFF0E900E9BCD
:104440000B930B9B002B00F0B5805E4A4FF4BE71BE
:104450000B9806F0DDFFADE0594B1A680F9BDB00AF
:1044600013445B681B685B68002B00F0A580544B0D
:104470001A680F9BDB0013445B685E68504B1A6838
:104480000F9BDB0013445B681B681B681846FFF733
:104490000FFE03461A464FF00003DD0345EA52457E
:1044A000D40314F5FA7045F100014FF47A724FF01D
:1044B000000327F029FD03460C4619460F9B1A46B8
:1044C000304607F071FF0E900E9B0A930A9B002B5B
:1044D00005D03C4A4FF4C5710A9806F099FF0121B6
:1044E0000F98FFF7C9FE0E900E9B0993099B002BB6
:1044F00005D0344A40F28F11099806F089FF324BFB
:104500001B68184601F0D0FB0E900E9B0893089B89
:10451000002B05D02B4A4FF4C971089806F078FF9C
:10452000274B1A680F9BDB0013445B681B681B7AE0
:104530000DF10E0219460F98FFF744FD0E900E9BE9
:104540000793079B002B05D01E4A40F29511079850
:1045500006F05EFFBDF80E301846FFF7BDFD0E9069
:104560000E9B0693069B002B05D0164A4FF4CC7188
:10457000069806F04DFF01F045FF0E900E9B059347
:10458000059B002B18D00F4A40F29B11059806F0AE
:104590003FFF11E001230E930E9B0493049B002B1D
:1045A0000BD0084A40F2AD11049806F031FF04E048
:1045B00000BF02E000BF00E000BF00BF10B070BD50
:1045C000143700205CDE04001837002084B003900C
:1045D000029101920093019B00221A70039B1B78A9
:1045E000002B1AD1039B5B78FF2B16D1039B9B7882
:1045F000002B12D1039BDB78002B0ED1039B1B7980
:10460000002B0AD1039B5B79002B06D1029B002271
:104610001A70019B01221A7050E0039B1B78002B3B
:104620001AD1039B5B78002B16D1039B9B78002B40
:1046300012D1039BDB78002B0ED1039B1B79002B3F
:104640000AD1039B5B79002B06D1029B01221A70D1
:10465000019B01221A7031E0039B1B78002B13D1C0
:10466000039B9B78002B0FD1039BDB78002B0BD196
:10467000039B1B79002B07D1039B5B79002B03D194
:10468000029B02221A7019E0039B9B78002B0AD12F
:10469000029B03221A70039BDB78002B0ED1019B37
:1046A00001221A700AE0029B04221A70039BDB7835
:1046B000002B03D1019B01221A70FFE700BF04B059
:1046C0007047000000B589B0059003921A460B466A
:1046D0008DF8133013468DF812309DF813300122F7
:1046E00002FA03F3ADF81E30904B1B68184601F038
:1046F000DBFA0690069B002B0DD08D480AF082F95C
:104700000246069B009340F2F9138A4902200AF000
:10471000BBF9069B05E19DF81230002B30D1BDF8A6
:104720001E301946002001F03DFD0690069B002B2F
:104730000DD07F480AF066F90246069B009340F2CE
:10474000FF137C4902200AF09FF9069BE9E0BDF8BF
:104750001E301946002001F073FC0690069B002BCA
:1047600000F0CA8072480AF04DF90246069B009399
:1047700040F202236F4902200AF086F9069BD0E03E
:104780009DF81230012B30D1BDF81E3000211846A3
:1047900001F056FC0690069B002B0DD064480AF0F1
:1047A00031F90246069B00934FF4027361490220DF
:1047B0000AF06AF9069BB4E0BDF81E3019460020E5
:1047C00001F0F0FC0690069B002B00F09580584805
:1047D0000AF018F90246069B009340F20B23554954
:1047E00002200AF051F9069B9BE0039B002B01D1AC
:1047F0000E2396E0039B1B781A04039B5B781B0235
:104800001A43039B9B78DB001343039AD27813432C
:1048100019469DF81330484A184601F003FD0690EA
:10482000069B002B0DD042480AF0ECF80246069B8E
:10483000009340F21B233F4902200AF025F9069B12
:104840006FE0BDF81E30184602F010F90346002B49
:1048500022D0039B1B791B021AB2039B5B791BB20C
:1048600013431BB299B29DF8133041F61F721846DC
:1048700001F03EFD0690069B002B0DD02C480AF05F
:10488000C1F80246069B00934FF4097329490220A0
:104890000AF0FAF8069B44E0BDF81E3000211846E5
:1048A00001F080FC0690069B002B0DD020480AF0FA
:1048B000A9F80246069B00934FF40A731D49022093
:1048C0000AF0E2F8069B2CE0BDF81E3019460020E5
:1048D00001F0B6FB0690069B002B0DD014480AF0A1
:1048E00091F80246069B00934FF40B731149022086
:1048F0000AF0CAF8069B14E001F084FD0690069BBE
:10490000002B0DD00A480AF07DF80246069B009362
:104910004FF40C73074902200AF0B6F8069B00E03A
:104920000023184609B05DF804FB00BF18370020CB
:104930005CDE0400C8DE0400FFFF1F0000B587B086
:1049400003900291019200238DF81030FF238DF81F
:10495000113000238DF8123000238DF8133000231E
:104960008DF8143000238DF81530019B002B08D1F1
:10497000029BD9B2012300220398FFF7A3FE03464E
:1049800017E0019BFF2B08D1029BD9B20023002224
:104990000398FFF797FE03460BE0019BDBB28DF80F
:1049A0001130029BD9B204AA02230398FFF78AFEB2
:1049B0000346184607B05DF804FB000000B587B059
:1049C00003900291654B1A68039BDB0013445B68FC
:1049D0001B6800221A72614B1A68039BDB001344A8
:1049E0005B685B68184607F011FD0590059B002B7E
:1049F0000DD05B480AF006F80246059B009340F292
:104A00005923584902200AF03FF8059BA1E0029B78
:104A10001B78002B03D0029B1B78FF2B25D1029B18
:104A20005B78002B03D0029B5B78FF2B1DD1029B90
:104A30009B78002B03D0029B9B78FF2B15D1002184
:104A40000398FFF719FC0590059B002B23D04448E1
:104A500009F0D8FF0246059B00934FF418734149B3
:104A600002200AF011F8059B73E003210398FFF779
:104A700003FC0590059B002B0DD0394809F0C2FFBF
:104A80000246059B009340F265233649022009F057
:104A9000FBFF059B5DE0314B1A68039BDB00134471
:104AA0005B781946029B1B781A460398FFF746FF6E
:104AB0000590059B002B0DD0294809F0A3FF024665
:104AC000059B009340F269232649022009F0DCFF90
